{
  "_format": "hh-sol-artifact-1",
  "contractName": "Election",
  "sourceName": "contracts/Election.sol",
  "abi": [
    {
      "inputs": [
        {
          "internalType": "string[]",
          "name": "_nd",
          "type": "string[]"
        },
        {
          "internalType": "uint256[]",
          "name": "_se",
          "type": "uint256[]"
        },
        {
          "internalType": "string[]",
          "name": "_candidates",
          "type": "string[]"
        }
      ],
      "stateMutability": "nonpayable",
      "type": "constructor"
    },
    {
      "inputs": [
        {
          "internalType": "uint256",
          "name": "",
          "type": "uint256"
        }
      ],
      "name": "candidates",
      "outputs": [
        {
          "internalType": "uint256",
          "name": "id",
          "type": "uint256"
        },
        {
          "internalType": "string",
          "name": "name",
          "type": "string"
        },
        {
          "internalType": "uint256",
          "name": "voteCount",
          "type": "uint256"
        }
      ],
      "stateMutability": "view",
      "type": "function"
    },
    {
      "inputs": [],
      "name": "candidatesCount",
      "outputs": [
        {
          "internalType": "uint256",
          "name": "",
          "type": "uint256"
        }
      ],
      "stateMutability": "view",
      "type": "function"
    },
    {
      "inputs": [],
      "name": "description",
      "outputs": [
        {
          "internalType": "string",
          "name": "",
          "type": "string"
        }
      ],
      "stateMutability": "view",
      "type": "function"
    },
    {
      "inputs": [],
      "name": "edate",
      "outputs": [
        {
          "internalType": "uint256",
          "name": "",
          "type": "uint256"
        }
      ],
      "stateMutability": "view",
      "type": "function"
    },
    {
      "inputs": [],
      "name": "name",
      "outputs": [
        {
          "internalType": "string",
          "name": "",
          "type": "string"
        }
      ],
      "stateMutability": "view",
      "type": "function"
    },
    {
      "inputs": [],
      "name": "sdate",
      "outputs": [
        {
          "internalType": "uint256",
          "name": "",
          "type": "uint256"
        }
      ],
      "stateMutability": "view",
      "type": "function"
    },
    {
      "inputs": [
        {
          "internalType": "uint256",
          "name": "_candidate",
          "type": "uint256"
        }
      ],
      "name": "vote",
      "outputs": [],
      "stateMutability": "nonpayable",
      "type": "function"
    },
    {
      "inputs": [
        {
          "internalType": "address",
          "name": "",
          "type": "address"
        }
      ],
      "name": "voters",
      "outputs": [
        {
          "internalType": "bool",
          "name": "",
          "type": "bool"
        }
      ],
      "stateMutability": "view",
      "type": "function"
    }
  ],
  "bytecode": "0x60806040523480156200001157600080fd5b5060405162000e6d38038062000e6d833981810160405281019062000037919062000435565b826000815181106200004557fe5b6020026020010151600090805190602001906200006492919062000202565b50826001815181106200007357fe5b6020026020010151600190805190602001906200009292919062000202565b5081600081518110620000a157fe5b602002602001015160028190555081600181518110620000bd57fe5b602002602001015160038190555081600081518110620000d957fe5b602002602001015142101562000114576001600460006101000a81548160ff021916908360028111156200010957fe5b02179055506200013a565b6000600460006101000a81548160ff021916908360028111156200013457fe5b02179055505b60005b81518110156200017a576200016c8282815181106200015857fe5b60200260200101516200018460201b60201c565b80806001019150506200013d565b50505050620005f7565b600760008154809291906001019190505550604051806060016040528060075481526020018281526020016000815250600560006007548152602001908152602001600020600082015181600001556020820151816001019080519060200190620001f192919062000202565b506040820151816002015590505050565b828054600181600116156101000203166002900490600052602060002090601f0160209004810192826200023a576000855562000286565b82601f106200025557805160ff191683800117855562000286565b8280016001018555821562000286579182015b828111156200028557825182559160200191906001019062000268565b5b50905062000295919062000299565b5090565b5b80821115620002b45760008160009055506001016200029a565b5090565b600082601f830112620002ca57600080fd5b8151620002e1620002db826200050a565b620004d6565b9150818183526020840193506020810190508360005b838110156200032b5781518601620003108882620003c2565b845260208401935060208301925050600181019050620002f7565b5050505092915050565b600082601f8301126200034757600080fd5b81516200035e620003588262000539565b620004d6565b915081818352602084019350602081019050838560208402820111156200038457600080fd5b60005b83811015620003b857816200039d88826200041e565b84526020840193506020830192505060018101905062000387565b5050505092915050565b600082601f830112620003d457600080fd5b8151620003eb620003e58262000568565b620004d6565b915080825260208301602083018583830111156200040857600080fd5b62000415838284620005a5565b50505092915050565b6000815190506200042f81620005dd565b92915050565b6000806000606084860312156200044b57600080fd5b600084015167ffffffffffffffff8111156200046657600080fd5b6200047486828701620002b8565b935050602084015167ffffffffffffffff8111156200049257600080fd5b620004a08682870162000335565b925050604084015167ffffffffffffffff811115620004be57600080fd5b620004cc86828701620002b8565b9150509250925092565b6000604051905081810181811067ffffffffffffffff821117156200050057620004ff620005db565b5b8060405250919050565b600067ffffffffffffffff821115620005285762000527620005db565b5b602082029050602081019050919050565b600067ffffffffffffffff821115620005575762000556620005db565b5b602082029050602081019050919050565b600067ffffffffffffffff821115620005865762000585620005db565b5b601f19601f8301169050602081019050919050565b6000819050919050565b60005b83811015620005c5578082015181840152602081019050620005a8565b83811115620005d5576000848401525b50505050565bfe5b620005e8816200059b565b8114620005f457600080fd5b50565b61086680620006076000396000f3fe608060405234801561001057600080fd5b50600436106100885760003560e01c80637284e4161161005b5780637284e41614610117578063a3ec138d14610135578063ed73690f14610165578063f748ca0d1461018357610088565b80630121b93f1461008d57806306fdde03146100a95780632d35a8a2146100c75780633477ee2e146100e5575b600080fd5b6100a760048036038101906100a29190610584565b6101a1565b005b6100b1610301565b6040516100be919061069f565b60405180910390f35b6100cf61039f565b6040516100dc9190610701565b60405180910390f35b6100ff60048036038101906100fa9190610584565b6103a5565b60405161010e9392919061071c565b60405180910390f35b61011f610467565b60405161012c919061069f565b60405180910390f35b61014f600480360381019061014a919061055b565b610505565b60405161015c9190610684565b60405180910390f35b61016d610525565b60405161017a9190610701565b60405180910390f35b61018b61052b565b6040516101989190610701565b60405180910390f35b600660003373ffffffffffffffffffffffffffffffffffffffff1673ffffffffffffffffffffffffffffffffffffffff16815260200190815260200160002060009054906101000a900460ff161561022e576040517f08c379a0000000000000000000000000000000000000000000000000000000008152600401610225906106e1565b60405180910390fd5b6007548111158015610241575060018110155b610280576040517f08c379a0000000000000000000000000000000000000000000000000000000008152600401610277906106c1565b60405180910390fd5b6001600660003373ffffffffffffffffffffffffffffffffffffffff1673ffffffffffffffffffffffffffffffffffffffff16815260200190815260200160002060006101000a81548160ff021916908315150217905550600560008281526020019081526020016000206002016000815480929190600101919050555050565b60008054600181600116156101000203166002900480601f0160208091040260200160405190810160405280929190818152602001828054600181600116156101000203166002900480156103975780601f1061036c57610100808354040283529160200191610397565b820191906000526020600020905b81548152906001019060200180831161037a57829003601f168201915b505050505081565b60075481565b6005602052806000526040600020600091509050806000015490806001018054600181600116156101000203166002900480601f0160208091040260200160405190810160405280929190818152602001828054600181600116156101000203166002900480156104575780601f1061042c57610100808354040283529160200191610457565b820191906000526020600020905b81548152906001019060200180831161043a57829003601f168201915b5050505050908060020154905083565b60018054600181600116156101000203166002900480601f0160208091040260200160405190810160405280929190818152602001828054600181600116156101000203166002900480156104fd5780601f106104d2576101008083540402835291602001916104fd565b820191906000526020600020905b8154815290600101906020018083116104e057829003601f168201915b505050505081565b60066020528060005260406000206000915054906101000a900460ff1681565b60035481565b60025481565b60008135905061054081610802565b92915050565b60008135905061055581610819565b92915050565b60006020828403121561056d57600080fd5b600061057b84828501610531565b91505092915050565b60006020828403121561059657600080fd5b60006105a484828501610546565b91505092915050565b6105b681610788565b82525050565b60006105c78261075a565b6105d18185610765565b93506105e18185602086016107be565b6105ea816107f1565b840191505092915050565b6000610602601a83610765565b91507f496e76616c69642063616e64696461746520746f20566f7465210000000000006000830152602082019050919050565b6000610642601883610765565b91507f566f7465722068617320616c726561647920566f7465642100000000000000006000830152602082019050919050565b61067e816107b4565b82525050565b600060208201905061069960008301846105ad565b92915050565b600060208201905081810360008301526106b981846105bc565b905092915050565b600060208201905081810360008301526106da816105f5565b9050919050565b600060208201905081810360008301526106fa81610635565b9050919050565b60006020820190506107166000830184610675565b92915050565b60006060820190506107316000830186610675565b818103602083015261074381856105bc565b90506107526040830184610675565b949350505050565b600081519050919050565b600082825260208201905092915050565b600061078182610794565b9050919050565b60008115159050919050565b600073ffffffffffffffffffffffffffffffffffffffff82169050919050565b6000819050919050565b60005b838110156107dc5780820151818401526020810190506107c1565b838111156107eb576000848401525b50505050565b6000601f19601f8301169050919050565b61080b81610776565b811461081657600080fd5b50565b610822816107b4565b811461082d57600080fd5b5056fea2646970667358221220ab00473caf902bb78e7e704eb003a2c1a781327cded7e91b2135e7d1f80cf42264736f6c63430007040033",
  "linkReferences": {},
  "deployedLinkReferences": {}
}